:100000000C94A5010C94C2010C94D3010C94C20170
:100010000C94C2010C940D020C94C2010C94C40106
:100020000C94C2010C94C2010C94C2010C94C20144
:100030000C94C2010C94C2010C94C2010C94C20134
:100040000C94C2010C94C2010C94C2010C94C20124
:100050000C94C2010C94C2010C94C2010C94C20114
:100060000C94C2010C94C2016E616E00696E660050
:1000700000407A10F35A00A0724E18090010A5D45F
:10008000E80000E87648170000E40B54020000CABC
:100090009A3B000000E1F505000080969800000002
:1000A00040420F000000A086010000001027000061
:1000B0000000E803000000006400000000000A00E7
:1000C000000000000100000000002C76D888DC67EA
:1000D0004F0823DFC1DFAE59E1B1B796E5E3E45342
:1000E000C63AE651997696E8E6C28426EB898C9B5F
:1000F00062ED407C6FFCEFBC9C9F40F2BAA56FA5FF
:10010000F490055A2AF75C936B6CF9676DC11BFC80
:10011000E0E40D47FEF520E6B500D0ED902E03009B
:10012000943577050080841E080000204E0A0000E8
:1001300000C80C333333330F986E12831141EF8DA7
:100140002114893BE65516CFFEE6DB18D1844B38E7
:100150001BF77C1D901DA4BBE424203284725E2218
:100160008100C9F124ECA1E53D270000000000005A
:10017000005F00000007000700147F147F14242A8A
:100180007F2A122313086462364955225000050362
:100190000000001C2241000041221C0014083E08FF
:1001A0001408083E08080050300000080808080835
:1001B000006060000020100804023E5149453E00E6
:1001C000427F400042615149462141454B3118145C
:1001D000127F1027454545393C4A4949300171098C
:1001E00005033649494936064949291E0036360075
:1001F0000000563600000814224100141414141490
:1002000000412214080201510906324979413E7E1B
:100210001111117E7F494949363E414141227F41BA
:1002200041221C7F494949417F090909013E414951
:10023000497A7F0808087F00417F41002040413F04
:10024000017F081422417F404040407F020C027F22
:100250007F0408107F3E4141413E7F090909063E67
:100260004151215E7F091929464649494931010119
:100270007F01013F4040403F1F2040201F3F40384A
:10028000403F63140814630708700807615149452B
:1002900043007F41410002040810200041417F00DB
:1002A00004020102044040404040000102040020DA
:1002B000545454787F4844443838444444203844A3
:1002C00044487F3854545418087E0901020C525295
:1002D000523E7F0804047800447D40002040443DA5
:1002E000007F1028440000417F40007C04180478FF
:1002F0007C0804047838444444387C1414140808F6
:100300001414187C7C080404084854545420043FF6
:100310004440203C4040207C1C2040201C3C40307D
:10032000403C44281028440C5050503C4464544CE9
:1003300044000836410000007F00000041360800FC
:100340001008081008000000000011241FBECFEFA5
:10035000D8E0DEBFCDBF11E0A0E0B1E0E6E5F7E117
:1003600002C005900D92A433B107D9F723E0A4E3AE
:10037000B1E001C01D92A737B207E1F70E94310733
:100380000C94A90B0C9400008F938FB78F938091DE
:1003900037018F5F8093370181E0809336018F9121
:1003A0008FBF8F9118951F920F920FB60F92112445
:1003B0002F933F934F935F936F937F938F939F936D
:1003C000AF93BF93EF93FF934B9B16C020E030E0B9
:1003D00040E05FE3609138017091390180913A010A
:1003E00090913B010E941B09609338017093390181
:1003F00080933A0190933B01FF91EF91BF91AF91B0
:100400009F918F917F916F915F914F913F912F912C
:100410000F900FBE0F901F9018951F920F920FB65E
:100420000F9211242F933F934F935F936F937F937A
:100430008F939F93AF93BF93EF93FF93489B16C007
:1004400020E030E040E85EE36091380170913901CE
:1004500080913A0190913B010E941B096093380101
:100460007093390180933A0190933B014C9B16C0E5
:1004700020E030E040E85FE360913801709139019D
:1004800080913A0190913B010E941B0960933801D1
:100490007093390180933A0190933B01FF91EF9162
:1004A000BF91AF919F918F917F916F915F914F918C
:1004B0003F912F910F900FBE0F901F90189541986C
:1004C0006623A9F0439A27E030E090E0AC01022EC9
:1004D00002C0559547950A94E2F740FF0AC0449A36
:1004E000459A45982150310988F7419A08954398D3
:1004F000EACF4498F5CF60E00C945F02CF93DF938E
:10050000399A3A9A3B9A3C9A3D9A429A419A8FE399
:100510009CE90197F1F700C0000042989FEF2AE69E
:1005200083E0915020408040E1F700C00000429AF3
:10053000419881E20E947B0283E10E947B0286E077
:100540000E947B0282EC0E947B0280E20E947B027E
:1005500089E00E947B0280E80E947B0280E40E9486
:100560007B02C8EFD1E061E080E00E945F0221974A
:10057000D1F788E00E947B028CE0DF91CF910C9450
:100580007B0280E80E947B0280E40E947B02109242
:10059000750310927603EDE7F1E088EF91E0DF015B
:1005A0009C011D9221503040E1F70895811103C054
:1005B00084E20C947B0280E2FCCF962F9695969570
:1005C0009695E82FF0E084E5989FE00DF11D112449
:1005D000E358FE4F2081677081E090E001C0880FF2
:1005E0006A95EAF7442319F0282B20830895809513
:1005F0002823FBCF8F929F92AF92BF92DF92EF9210
:10060000FF920F931F93CF93DF9300D000D00F92F0
:10061000CDB7DEB7E82FF62E80320CF44DC0E05295
:1006200085E0E802B001112466597E4F45E050E0B4
:10063000CE0101960E94D90A8E010F5F1F4F95E0EF
:10064000F99E5001112487E0F89E40011124E12C0D
:10065000EA141B040CF463C0809175038F5F9F2D17
:10066000990F990F9F0D890F80937503843558F06A
:1006700080917603109275038F5F97E0F99E800D4D
:1006800011248093760380917603803320F01092BA
:100690007503109276030F900F900F900F900F90AC
:1006A000DF91CF911F910F91FF90EF90DF90BF905E
:1006B000AF909F908F900895EE0FFF0BE35CFE4F7D
:1006C000008111810115110509F0B9CF45E050E015
:1006D0006AE671E0ADCFED0D5E0D8E2D6F2D0E949F
:1006E000D708D801A80FB11D2C9130E08D2D0E94A4
:1006F000D70802C0359527958A95E2F741E020FF9B
:1007000040E06E2F852F0E94DD02D394E0917603A6
:1007100050917503D8141904F4F2E39499CFD12CB5
:10072000F5CFE82F803234F4EE0FFF0BE35CFE4F81
:100730007183608308951F93CF93DF93162FEC018D
:100740008991811104C0DF91CF911F910895612F8C
:100750000E94FA02F5CF80937503609376030895A3
:10076000CF93DF9380E80E947B0280E40E947B02AB
:10077000CDE7D1E061E089910E945F0283E0C53757
:10078000D807C1F7DF91CF910895A3E1B0E0EBEC7A
:10079000F3E00C94E3087C011B015A01DC0117967D
:1007A0001C921E92169713968C9181FF50C3FE01E6
:1007B00031964F01D70113969C91F10193FD8591DC
:1007C00093FF81911F01882309F4F4C2853239F423
:1007D00093FD859193FF81911F01853239F4B70113
:1007E00090E00E94F80A65015601E4CF10E0712CF8
:1007F000612CBFE1B61538F08B3211F190F48032E4
:1008000009F1833229F167FC3CC020ED280F2A3022
:1008100050F566FE20C0EAE01E9F200D1124122F25
:1008200006C08D3291F0803371F7689460F8F10161
:1008300093FD859193FF81911F018111DACF21C032
:10084000689461F8689462F8F2CF689463F8EFCF27
:10085000689464F8ECCFFAE07F9E200D1124722E8C
:10086000689465F8E4CF8E3229F466FCA3C26894DC
:1008700066F8DDCF8C3619F4689467F8D8CF8836DF
:10088000B1F29BEB980F933008F065C0689464F860
:10089000805E66FE16E0262D2F73622E853609F0E7
:1008A00062C0689466F867FE68C0812F1C3308F048
:1008B0008BE344244394480E27E0D5014D915D918C
:1008C0006D917D916D014C875D876E877F87042DCB
:1008D000A4016C857D858E859F850E94010A5C013F
:1008E000B981BC87B0FF03C00DE2B3FF0AC00BE2C1
:1008F00061FC07C062FA882780F9082F0295000F73
:10090000007EEC85EC705E2E09F454C00111A2C289
:10091000F3E0512CF715A0F483E0572C581A63FC30
:1009200008C0B70180E290E00E94F80A5A94511082
:10093000F8CF002329F0B701802F90E00E94F80A39
:10094000FC8508E610E0F3FD02C00CE610E0262D61
:100950002071622E21C09BE9980F933008F03AC1B4
:10096000E89464F896CF863619F4689467F89BCFBC
:10097000112309F498CF115096CF212F183010F081
:1009800027E017E0412C99CF61108052B70190E029
:100990000E94F80A0F5F1F4FF80184918111F4CF74
:1009A000552009F421CFB70180E290E00E94F80AB7
:1009B0005A94F6CF67FE7DC0842D8A0DFC85F4FF26
:1009C00004C09A81913309F4815044244394181649
:1009D00034F4482E28E0281710F488E0482E85E0EB
:1009E00090E067FE06C0C501B7FE02C080E090E05F
:1009F000019601110196112331F0212F30E02F5F74
:100A00003F4F820F931F7816190619F014F0572CD8
:100A1000581A862D897011F4511070C0002329F0E6
:100A2000B701802F90E00E94F80A63FC02C05110C9
:100A30006CC067FE85C03501B7FE02C0712C612C09
:100A4000C50186199709A401480F591F598B488B76
:100A5000B501641971097B8B6A8B012F10E0119528
:100A600001951109A614B7040CF456C0AA89BB89D4
:100A7000A615B7050CF050C0E889F9898181F1E02D
:100A80006F1A7108601671060CF448C0B70190E047
:100A90000E94F80A2FEF6216720629F4B7018EE25F
:100AA00090E00E94F80A888999890196998B888B31
:100AB000D9CF66FC94CFE12FF0E0EA15FB053CF0BE
:100AC0003CEFA3163FEFB30614F0689467F8329634
:100AD000E80DF91D01C01150112319F082918033E6
:100AE000D1F367FE7CCF44244394410E1A151B04B6
:100AF00019F014F01A1973CF10E071CFB70180E22A
:100B000090E00E94F80A5A9487CFB70180E390E002
:100B10000E94F80A5A948BCF80E3B1CFA614B70491
:100B200041F49A81963350F4953319F43C8534FF9F
:100B300005C0B70190E00E94F80A32CF81E3F9CFF7
:100B40008A81813319F04C854F7E4C87B70190E044
:100B50000E94F80A112399F0B7018EE290E00E94FA
:100B6000F80A1E5F02E0802F0F5FF401E80FF11D0D
:100B70008081B70190E00E94F80A1013F4CF85E657
:100B800064FC85E490E0B7010E94F80AB7FC06C057
:100B9000A114B104C1F45C8554FF15C0B194A194B3
:100BA000B1088DE2B70190E00E94F80A80E37AE094
:100BB000A716B10454F4B70190E00E94F80AB701F7
:100BC000C501C096B8CF8BE2EDCF8F5F6AE0A61A61
:100BD000B108EDCF8336B1F0833741F1833509F0A9
:100BE0004DC0D501AD90BD906D01612F70E066FCE8
:100BF00002C06FEF7FEFC5010E94E20A8C0168948A
:100C000067F80CC0650182E0C80ED11CD5018C913B
:100C1000898301E010E05401E89467F863FC04C0A4
:100C20007016110609F088F4572C24C0F501A19024
:100C3000B1906F01612F70E066FC02C06FEF7FEF33
:100C4000C5010E94ED0A8C01E7CFB70180E290E078
:100C50000E94F80A7A94E4CFF50167FC859167FE5B
:100C600081915F01B70190E00E94F80A51105A94F7
:100C7000015011090115110579F792CE843619F04A
:100C8000893609F070C067FE65C0F5016191719108
:100C9000819191916F01B62DBF766B2E97FF09C0A0
:100CA00090958095709561957F4F8F4F9F4F689479
:100CB00067F82AE030E0A4010E944B0BA82EA81888
:100CC000BA2C062D66FE0AC00E7FA11638F464FE0B
:100CD00004C062FC02C0062D0E7EB12E04FF8FC040
:100CE000FE01EA0DF11D8081803309F081C0097E8B
:100CF000502F5870552E03FD91C000FF8BC01A2D48
:100D0000B71418F47A0C172D1B1904FF8DC0B70106
:100D100080E390E00E94F80A02FF07C088E701FD27
:100D200088E590E0B7010E94F80AA11608F488C08F
:100D3000AA940A2D10E00F5F1F4F080D191DD8014E
:100D40008E918D01B70190E00E94F80A08151905EF
:100D5000B1F726CED5016D917D916D01072E000C66
:100D6000880B990B98CF062D8537E1F40F7E2AE08A
:100D700030E007FF35C0D5014D915D916D917D91BA
:100D80006D014C875D876E877F87A4016C857D85AB
:100D90008E859F850E944B0BA82EA818602EE89484
:100DA00067F88ECF097F803791F058F4883589F045
:100DB0008F36A1F0F701868197816396E2E10C946A
:100DC000FF088837B9F704FD046020E1D1CF006146
:100DD000FACF64FC066020E132E0CBCF28E0C8CF38
:100DE000F501819191916F01AC0170E060E0C9CF94
:100DF00002FD02C0B3947CCFB394B39479CF802F1B
:100E0000867809F475CFF6CFB70180E290E00E94B2
:100E1000F80AB394B714C0F3512C77CF572C5B1852
:100E2000B71408F472CFF8CF802F867809F47DCFFD
:100E30008BE201FF80E207FD8DE2B70190E073CF06
:100E4000B70180E390E00E94F80A11506ECF8FEF57
:100E50009FEFB3CF24E0512C271508F06CCD84E030
:100E60005CCDCDB7DEB7C054D1090FB6F894DEBF64
:100E70000FBECDBFF8941092380110923901109234
:100E80003A0110923B0184B18E6084B98AB1867AAE
:100E90008AB98BB189658BB9809169008460809330
:100EA0006900E99A8091680084608093680080916D
:100EB0006D00816580936D008091B00082608093A9
:100EC000B0008091B10087608093B1008CE980937D
:100ED000B3008091700082608093700078948AE003
:100EE000882E9CE0C92E91E0D92E7E012FE1E20EE2
:100EF000F11C2AE1A22E21E0B22E8E010F5F1F4FBE
:100F00003FE3732E40EC642E5524539458E0952E05
:100F100010923401809235012B98299A0E947E020A
:100F20000E94C10261E080E091E00E949B038091F9
:100F30003B018F9380913A018F93809139018F9378
:100F4000809138018F93DF92CF92FF92EF920E94AF
:100F5000280B6CE080E00E94AB0361E0C7010E94B7
:100F60009B03809135011F928F93BF92AF921F9385
:100F70000F930E94280B68E180E00E94AB0361E0C0
:100F8000C8010E949B030E94B0030FB6F894DEBF15
:100F90000FBECDBF8091380190913901A0913A01E7
:100FA000B0913B0121968CAF9DAFAEAFBFAF219703
:100FB00020E030E040EC5FE3BC01CD010E948709F6
:100FC00087FDCCC020E030E040EC5FE321966CADC3
:100FD0007DAD8EAD9FAD21970E94870981111AC00A
:100FE0007F926F921F921F92DF92CF92FF92EF92A9
:100FF0000E94280B6CE080E00E94AB0361E0C70117
:101000000E949B030E94B00329980FB6F894DEBF9C
:101010000FBECDBF80913401882309F4C3C08091F5
:10102000350190913601882309F472CF9130D9F7B8
:101030002A9A809135011F928F93BF92AF921F938E
:101040000F930E94280B68E180E00E94AB0361E0EF
:10105000C8010E949B030E94B003BFEF23ED80E311
:10106000B15020408040E1F700C000008091350180
:101070008150809335010F900F900F900F900F903B
:101080000F908111CCCF809137018A3040F21092BD
:1010900038011092390110923A0110923B011F92CF
:1010A0001F921F921F92DF92CF92FF92EF920E94A7
:1010B000280B6CE080E00E94AB0361E0C7010E9456
:1010C0009B03809135011F928F93BF92AF921F9324
:1010D0000F930E94280B68E180E00E94AB0361E05F
:1010E000C8010E949B0364E280E00E94AB0361E0C0
:1010F00086E291E00E949B030E94B0032A9810921E
:1011000036010FB6F894DEBF0FBECDBF20E030E051
:10111000A901609138017091390180913A01909153
:101120003B010E94870981117ACF85B1892585B954
:10113000BFEF29E688E1B15020408040E1F700C0D0
:10114000000085B1892585B99FEFA9E6B8E19150E6
:10115000A040B040E1F700C00000D8CF21969FAD7D
:1011600021979F93AFADAF93BEADBF932DAD2F939E
:10117000DF92CF92FF92EF920E94280B6CE080E00A
:101180000E94AB0361E0C7010E949B030E94B00371
:101190008FEF99E6A8E181509040A040E1F700C0B0
:1011A0000000F3CE4E9BFECF5092340133CF991BFB
:1011B00079E004C0991F961708F0961B881F7A954E
:1011C000C9F7809508952F923F924F925F926F9248
:1011D0007F928F929F92AF92BF92CF92DF92EF92C7
:1011E000FF920F931F93CF93DF93CDB7DEB7CA1B48
:1011F000DB0B0FB6F894DEBF0FBECDBF09942A8873
:10120000398848885F846E847D848C849B84AA841A
:10121000B984C884DF80EE80FD800C811B81AA81A7
:10122000B981CE0FD11D0FB6F894DEBF0FBECDBF72
:10123000ED0108955058BB27AA270E9432090C944B
:10124000C7090E94B90938F00E94C00920F039F49A
:101250009F3F19F426F40C94B6090EF4E095E7FBD1
:101260000C94B009E92F0E94D80958F3BA17620705
:1012700073078407950720F079F4A6F50C94FA0912
:101280000EF4E0950B2EBA2FA02D0B01B9019001A1
:101290000C01CA01A0011124FF27591B99F0593FE5
:1012A00050F4503E68F11A16F040A22F232F342F2D
:1012B0004427585FF3CF469537952795A795F0407B
:1012C0005395C9F77EF41F16BA0B620B730B840B90
:1012D000BAF09150A1F0FF0FBB1F661F771F881F48
:1012E000C2F70EC0BA0F621F731F841F48F48795A0
:1012F00077956795B795F7959E3F08F0B0CF939592
:10130000880F08F09927EE0F9795879508950E940A
:101310008C0908F481E00895990F0008550FAA0B75
:10132000E0E8FEEF16161706E807F907C0F01216F8
:101330001306E407F50798F0621B730B840B950BFB
:1013400039F40A2661F0232B242B252B21F4089550
:101350000A2609F4A140A6958FEF811D811D0895ED
:1013600097F99F6780E870E060E008959FEF80EC58
:10137000089500240A9416161706180609060895FB
:1013800000240A9412161306140605060895092E61
:101390000394000C11F4882352F0BB0F40F4BF2BD0
:1013A00011F460FF04C06F5F7F4F8F4F9F4F089510
:1013B00057FD9058440F551F59F05F3F71F0479506
:1013C000880F97FB991F61F09F3F79F087950895EB
:1013D000121613061406551FF2CF4695F1DF08C00A
:1013E000161617061806991FF1CF86957105610527
:1013F00008940895E894BB2766277727CB0197F9CF
:101400000895283008F027E03327DA01990F311DBD
:1014100087FD916000966105710539F432602E5F99
:101420003D9330E32A95E1F708959F3F30F08038EF
:101430007105610509F03C5F3C5F3D93913008F018
:101440008068911DDF93CF931F930F93FF92EF92CC
:10145000192F987F9695E92F96959695E90FFF2776
:10146000E653FF4F99273327EE24FF24A701E70116
:1014700005900894079428F4360FE71EF81E491FBC
:10148000511D660F771F881F991F0694A1F70590BD
:10149000079428F4E70EF81E491F561FC11D770F49
:1014A000881F991F661F0694A1F70590079428F4DA
:1014B000F80E491F561FC71FD11D880F991F661FA1
:1014C000771F0694A1F70590079420F4490F561F43
:1014D000C71FD81F990F661F771F881F0694A9F78B
:1014E00084911095177041F0D695C79557954795FB
:1014F000F794E7941A95C1F7E0E7F0E06894159047
:10150000159135916591959105907FE27395E1185C
:10151000F10A430B560BC90BD009C0F7E10CF11EC1
:10152000431F561FC91FD01D7EF4703311F48A95D6
:10153000E6CFE894015030F0080F0AF400270217B4
:1015400008F4202F2395022F7A3328F079E37D9336
:101550002A95E9F710C07D932A9589F60694979508
:101560006795379517951794E118F10A430B560BB9
:10157000C90BD00998F023957E9173957A3308F0C2
:1015800070E37C932013B8F77E9170617D9330F007
:10159000839571E37D9370E32A95E1F71124EF9031
:1015A000FF900F911F91CF91DF91992787FD909523
:1015B0000895FB01DC0102C005900D92415050409E
:1015C000D8F70895FC010590615070400110D8F7DC
:1015D000809590958E0F9F1F0895FC01615070407B
:1015E00001900110D8F7809590958E0F9F1F089558
:1015F0000F931F93CF93DF93182F092FEB018B814C
:1016000081FD09C01FEF0FEF812F902FDF91CF9148
:101610001F910F91089582FF14C02E813F818C810C
:101620009D81281739073CF4E881F981CF010196A3
:101630009983888310838E819F8101969F838E83F7
:10164000E3CFE885F985812F0995892BA1F3DACFBE
:10165000AEE0B0E0EEE2FBE00C94F1080D891E89EB
:1016600086E08C831A8309838FEF9FE79E838D83A7
:10167000AE01475E5F4F6F89788DCE0101960E9463
:10168000C5032F813885020F131FF80110822E9693
:10169000E4E00C940D09FA01AA27283051F1203119
:1016A00081F1E8946F936E7F6E5F7F4F8F4F9F4FF6
:1016B000AF4FB1E03ED0B4E03CD0670F781F891F38
:1016C0009A1FA11D680F791F8A1F911DA11D6A0F06
:1016D000711D811D911DA11D20D009F468943F91B9
:1016E0002AE0269F11243019305D3193DEF6CF01B8
:1016F0000895462F4770405D4193B3E00FD0C9F77E
:10170000F6CF462F4F70405D4A3318F0495D31FDEA
:101710004052419302D0A9F7EACFB4E0A69597953D
:10172000879577956795BA95C9F700976105710513
:1017300008959B01AC010A2E06945795479537955D
:101740002795BA95C9F7620F731F841F951FA01DB7
:061750000895F894FFCF9C
:101756005041525155494D4554524F00637265648C
:1017660069746F3A20252E32660074656D706F3A83
:1017760020253032640073656D2063726564697478
:041786006F7300007D
:040000050080013442
:00000001FF
